{
  "contractName": "Staking_dapp",
  "abi": [
    {
      "inputs": [
        {
          "internalType": "contract dummy",
          "name": "_dummyToken",
          "type": "address"
        },
        {
          "internalType": "contract Tether",
          "name": "_tetherToken",
          "type": "address"
        }
      ],
      "stateMutability": "nonpayable",
      "type": "constructor"
    },
    {
      "inputs": [],
      "name": "dummy_token",
      "outputs": [
        {
          "internalType": "contract dummy",
          "name": "",
          "type": "address"
        }
      ],
      "stateMutability": "view",
      "type": "function",
      "constant": true
    },
    {
      "inputs": [
        {
          "internalType": "address",
          "name": "",
          "type": "address"
        }
      ],
      "name": "hasStaked",
      "outputs": [
        {
          "internalType": "bool",
          "name": "",
          "type": "bool"
        }
      ],
      "stateMutability": "view",
      "type": "function",
      "constant": true
    },
    {
      "inputs": [
        {
          "internalType": "address",
          "name": "",
          "type": "address"
        }
      ],
      "name": "isStaking",
      "outputs": [
        {
          "internalType": "bool",
          "name": "",
          "type": "bool"
        }
      ],
      "stateMutability": "view",
      "type": "function",
      "constant": true
    },
    {
      "inputs": [],
      "name": "name",
      "outputs": [
        {
          "internalType": "string",
          "name": "",
          "type": "string"
        }
      ],
      "stateMutability": "view",
      "type": "function",
      "constant": true
    },
    {
      "inputs": [],
      "name": "owner",
      "outputs": [
        {
          "internalType": "address",
          "name": "",
          "type": "address"
        }
      ],
      "stateMutability": "view",
      "type": "function",
      "constant": true
    },
    {
      "inputs": [
        {
          "internalType": "uint256",
          "name": "",
          "type": "uint256"
        }
      ],
      "name": "stakers",
      "outputs": [
        {
          "internalType": "address",
          "name": "",
          "type": "address"
        }
      ],
      "stateMutability": "view",
      "type": "function",
      "constant": true
    },
    {
      "inputs": [
        {
          "internalType": "address",
          "name": "",
          "type": "address"
        }
      ],
      "name": "stakingBalance",
      "outputs": [
        {
          "internalType": "uint256",
          "name": "",
          "type": "uint256"
        }
      ],
      "stateMutability": "view",
      "type": "function",
      "constant": true
    },
    {
      "inputs": [],
      "name": "tether_token",
      "outputs": [
        {
          "internalType": "contract Tether",
          "name": "",
          "type": "address"
        }
      ],
      "stateMutability": "view",
      "type": "function",
      "constant": true
    },
    {
      "inputs": [
        {
          "internalType": "uint256",
          "name": "_amount",
          "type": "uint256"
        }
      ],
      "name": "stakeToken",
      "outputs": [],
      "stateMutability": "nonpayable",
      "type": "function"
    },
    {
      "inputs": [],
      "name": "unstakeToken",
      "outputs": [],
      "stateMutability": "nonpayable",
      "type": "function"
    },
    {
      "inputs": [],
      "name": "issueReward",
      "outputs": [],
      "stateMutability": "nonpayable",
      "type": "function"
    }
  ],
  "bytecode": "0x60806040526040518060400160405280600c81526020017f5374616b696e6720446170700000000000000000000000000000000000000000815250600090816200004a9190620003c3565b503480156200005857600080fd5b50604051620016773803806200167783398181016040528101906200007e91906200056d565b81600260006101000a81548173ffffffffffffffffffffffffffffffffffffffff021916908373ffffffffffffffffffffffffffffffffffffffff16021790555080600360006101000a81548173ffffffffffffffffffffffffffffffffffffffff021916908373ffffffffffffffffffffffffffffffffffffffff16021790555033600160006101000a81548173ffffffffffffffffffffffffffffffffffffffff021916908373ffffffffffffffffffffffffffffffffffffffff1602179055505050620005b4565b600081519050919050565b7f4e487b7100000000000000000000000000000000000000000000000000000000600052604160045260246000fd5b7f4e487b7100000000000000000000000000000000000000000000000000000000600052602260045260246000fd5b60006002820490506001821680620001cb57607f821691505b602082108103620001e157620001e062000183565b5b50919050565b60008190508160005260206000209050919050565b60006020601f8301049050919050565b600082821b905092915050565b6000600883026200024b7fffffffffffffffffffffffffffffffffffffffffffffffffffffffffffffffff826200020c565b6200025786836200020c565b95508019841693508086168417925050509392505050565b6000819050919050565b6000819050919050565b6000620002a46200029e62000298846200026f565b62000279565b6200026f565b9050919050565b6000819050919050565b620002c08362000283565b620002d8620002cf82620002ab565b84845462000219565b825550505050565b600090565b620002ef620002e0565b620002fc818484620002b5565b505050565b5b81811015620003245762000318600082620002e5565b60018101905062000302565b5050565b601f82111562000373576200033d81620001e7565b6200034884620001fc565b8101602085101562000358578190505b620003706200036785620001fc565b83018262000301565b50505b505050565b600082821c905092915050565b6000620003986000198460080262000378565b1980831691505092915050565b6000620003b3838362000385565b9150826002028217905092915050565b620003ce8262000149565b67ffffffffffffffff811115620003ea57620003e962000154565b5b620003f68254620001b2565b6200040382828562000328565b600060209050601f8311600181146200043b576000841562000426578287015190505b620004328582620003a5565b865550620004a2565b601f1984166200044b86620001e7565b60005b8281101562000475578489015182556001820191506020850194506020810190506200044e565b8683101562000495578489015162000491601f89168262000385565b8355505b6001600288020188555050505b505050505050565b600080fd5b600073ffffffffffffffffffffffffffffffffffffffff82169050919050565b6000620004dc82620004af565b9050919050565b6000620004f082620004cf565b9050919050565b6200050281620004e3565b81146200050e57600080fd5b50565b6000815190506200052281620004f7565b92915050565b60006200053582620004cf565b9050919050565b620005478162000528565b81146200055357600080fd5b50565b60008151905062000567816200053c565b92915050565b60008060408385031215620005875762000586620004aa565b5b6000620005978582860162000511565b9250506020620005aa8582860162000556565b9150509250929050565b6110b380620005c46000396000f3fe608060405234801561001057600080fd5b50600436106100a95760003560e01c80638da5cb5b116100715780638da5cb5b14610154578063c93c8f3414610172578063cda6b847146101a2578063f483f33b146101be578063f9075fc6146101c8578063fd5e6dd1146101e6576100a9565b806306fdde03146100ae57806320eb640c146100cc57806345bc78ab146100d65780636f49712b1461010657806389c95e9814610136575b600080fd5b6100b6610216565b6040516100c39190610acb565b60405180910390f35b6100d46102a4565b005b6100f060048036038101906100eb9190610b50565b61046c565b6040516100fd9190610b96565b60405180910390f35b610120600480360381019061011b9190610b50565b610484565b60405161012d9190610bcc565b60405180910390f35b61013e6104a4565b60405161014b9190610c46565b60405180910390f35b61015c6104ca565b6040516101699190610c70565b60405180910390f35b61018c60048036038101906101879190610b50565b6104f0565b6040516101999190610bcc565b60405180910390f35b6101bc60048036038101906101b79190610cb7565b610510565b005b6101c66107ec565b005b6101d06109d6565b6040516101dd9190610d05565b60405180910390f35b61020060048036038101906101fb9190610cb7565b6109fc565b60405161020d9190610c70565b60405180910390f35b6000805461022390610d4f565b80601f016020809104026020016040519081016040528092919081815260200182805461024f90610d4f565b801561029c5780601f106102715761010080835404028352916020019161029c565b820191906000526020600020905b81548152906001019060200180831161027f57829003601f168201915b505050505081565b6000600560003373ffffffffffffffffffffffffffffffffffffffff1673ffffffffffffffffffffffffffffffffffffffff1681526020019081526020016000205490506000811161032b576040517f08c379a000000000000000000000000000000000000000000000000000000000815260040161032290610dcc565b60405180910390fd5b600360009054906101000a900473ffffffffffffffffffffffffffffffffffffffff1673ffffffffffffffffffffffffffffffffffffffff1663a9059cbb33836040518363ffffffff1660e01b8152600401610388929190610dec565b6020604051808303816000875af11580156103a7573d6000803e3d6000fd5b505050506040513d601f19601f820116820180604052508101906103cb9190610e41565b506000600560003373ffffffffffffffffffffffffffffffffffffffff1673ffffffffffffffffffffffffffffffffffffffff168152602001908152602001600020819055506000600760003373ffffffffffffffffffffffffffffffffffffffff1673ffffffffffffffffffffffffffffffffffffffff16815260200190815260200160002060006101000a81548160ff02191690831515021790555050565b60056020528060005260406000206000915090505481565b60076020528060005260406000206000915054906101000a900460ff1681565b600360009054906101000a900473ffffffffffffffffffffffffffffffffffffffff1681565b600160009054906101000a900473ffffffffffffffffffffffffffffffffffffffff1681565b60066020528060005260406000206000915054906101000a900460ff1681565b60008111610553576040517f08c379a000000000000000000000000000000000000000000000000000000000815260040161054a90610eba565b60405180910390fd5b600360009054906101000a900473ffffffffffffffffffffffffffffffffffffffff1673ffffffffffffffffffffffffffffffffffffffff166323b872dd3330846040518463ffffffff1660e01b81526004016105b293929190610eda565b6020604051808303816000875af11580156105d1573d6000803e3d6000fd5b505050506040513d601f19601f820116820180604052508101906105f59190610e41565b5080600560003373ffffffffffffffffffffffffffffffffffffffff1673ffffffffffffffffffffffffffffffffffffffff168152602001908152602001600020546106419190610f40565b600560003373ffffffffffffffffffffffffffffffffffffffff1673ffffffffffffffffffffffffffffffffffffffff16815260200190815260200160002081905550600660003373ffffffffffffffffffffffffffffffffffffffff1673ffffffffffffffffffffffffffffffffffffffff16815260200190815260200160002060009054906101000a900460ff16610739576004339080600181540180825580915050600190039060005260206000200160009091909190916101000a81548173ffffffffffffffffffffffffffffffffffffffff021916908373ffffffffffffffffffffffffffffffffffffffff1602179055505b6001600760003373ffffffffffffffffffffffffffffffffffffffff1673ffffffffffffffffffffffffffffffffffffffff16815260200190815260200160002060006101000a81548160ff0219169083151502179055506001600660003373ffffffffffffffffffffffffffffffffffffffff1673ffffffffffffffffffffffffffffffffffffffff16815260200190815260200160002060006101000a81548160ff02191690831515021790555050565b600160009054906101000a900473ffffffffffffffffffffffffffffffffffffffff1673ffffffffffffffffffffffffffffffffffffffff163373ffffffffffffffffffffffffffffffffffffffff161461087c576040517f08c379a000000000000000000000000000000000000000000000000000000000815260040161087390610fe6565b60405180910390fd5b60005b6004805490508110156109d3576000600482815481106108a2576108a1611006565b5b9060005260206000200160009054906101000a900473ffffffffffffffffffffffffffffffffffffffff1690506000600560008373ffffffffffffffffffffffffffffffffffffffff1673ffffffffffffffffffffffffffffffffffffffff16815260200190815260200160002054905060008111156109be57600260009054906101000a900473ffffffffffffffffffffffffffffffffffffffff1673ffffffffffffffffffffffffffffffffffffffff1663a9059cbb83836040518363ffffffff1660e01b8152600401610979929190610dec565b6020604051808303816000875af1158015610998573d6000803e3d6000fd5b505050506040513d601f19601f820116820180604052508101906109bc9190610e41565b505b505080806109cb90611035565b91505061087f565b50565b600260009054906101000a900473ffffffffffffffffffffffffffffffffffffffff1681565b60048181548110610a0c57600080fd5b906000526020600020016000915054906101000a900473ffffffffffffffffffffffffffffffffffffffff1681565b600081519050919050565b600082825260208201905092915050565b60005b83811015610a75578082015181840152602081019050610a5a565b60008484015250505050565b6000601f19601f8301169050919050565b6000610a9d82610a3b565b610aa78185610a46565b9350610ab7818560208601610a57565b610ac081610a81565b840191505092915050565b60006020820190508181036000830152610ae58184610a92565b905092915050565b600080fd5b600073ffffffffffffffffffffffffffffffffffffffff82169050919050565b6000610b1d82610af2565b9050919050565b610b2d81610b12565b8114610b3857600080fd5b50565b600081359050610b4a81610b24565b92915050565b600060208284031215610b6657610b65610aed565b5b6000610b7484828501610b3b565b91505092915050565b6000819050919050565b610b9081610b7d565b82525050565b6000602082019050610bab6000830184610b87565b92915050565b60008115159050919050565b610bc681610bb1565b82525050565b6000602082019050610be16000830184610bbd565b92915050565b6000819050919050565b6000610c0c610c07610c0284610af2565b610be7565b610af2565b9050919050565b6000610c1e82610bf1565b9050919050565b6000610c3082610c13565b9050919050565b610c4081610c25565b82525050565b6000602082019050610c5b6000830184610c37565b92915050565b610c6a81610b12565b82525050565b6000602082019050610c856000830184610c61565b92915050565b610c9481610b7d565b8114610c9f57600080fd5b50565b600081359050610cb181610c8b565b92915050565b600060208284031215610ccd57610ccc610aed565b5b6000610cdb84828501610ca2565b91505092915050565b6000610cef82610c13565b9050919050565b610cff81610ce4565b82525050565b6000602082019050610d1a6000830184610cf6565b92915050565b7f4e487b7100000000000000000000000000000000000000000000000000000000600052602260045260246000fd5b60006002820490506001821680610d6757607f821691505b602082108103610d7a57610d79610d20565b5b50919050565b7f42616c616e636520697320656d70747900000000000000000000000000000000600082015250565b6000610db6601083610a46565b9150610dc182610d80565b602082019050919050565b60006020820190508181036000830152610de581610da9565b9050919050565b6000604082019050610e016000830185610c61565b610e0e6020830184610b87565b9392505050565b610e1e81610bb1565b8114610e2957600080fd5b50565b600081519050610e3b81610e15565b92915050565b600060208284031215610e5757610e56610aed565b5b6000610e6584828501610e2c565b91505092915050565b7f416d6f756e742073686f756c642062652067726561746572207468616e203000600082015250565b6000610ea4601f83610a46565b9150610eaf82610e6e565b602082019050919050565b60006020820190508181036000830152610ed381610e97565b9050919050565b6000606082019050610eef6000830186610c61565b610efc6020830185610c61565b610f096040830184610b87565b949350505050565b7f4e487b7100000000000000000000000000000000000000000000000000000000600052601160045260246000fd5b6000610f4b82610b7d565b9150610f5683610b7d565b9250828201905080821115610f6e57610f6d610f11565b5b92915050565b7f43616c6c6572206f6620746869732066756e6374696f6e206d7573742062652060008201527f746865206f776e65720000000000000000000000000000000000000000000000602082015250565b6000610fd0602983610a46565b9150610fdb82610f74565b604082019050919050565b60006020820190508181036000830152610fff81610fc3565b9050919050565b7f4e487b7100000000000000000000000000000000000000000000000000000000600052603260045260246000fd5b600061104082610b7d565b91507fffffffffffffffffffffffffffffffffffffffffffffffffffffffffffffffff820361107257611071610f11565b5b60018201905091905056fea26469706673582212208714b22929f33389f54ea82f554bc55ae64bfc7bd391afae2890bdebf31c2a4564736f6c63430008130033",
  "immutableReferences": {},
  "source": "// SPDX-License-Identifier: MIT\npragma solidity 0.8.19;\n\nimport \"./Tether_token.sol\";\nimport \"./Dummy_token.sol\";\n\ncontract Staking_dapp {\n\n    string public name = \"Staking Dapp\";\n    address public owner;\n    dummy public dummy_token;\n    Tether public tether_token;\n\n    address[] public stakers;\n    mapping(address => uint) public stakingBalance;\n    mapping(address => bool) public hasStaked;\n    mapping(address => bool) public isStaking;\n\n    constructor(dummy _dummyToken, Tether _tetherToken) {\n\n        dummy_token = _dummyToken;\n        tether_token = _tetherToken;\n        owner = msg.sender;\n    }\n\n    function stakeToken(uint _amount) public{\n        require(_amount > 0, \"Amount should be greater than 0\");\n        tether_token.transferFrom(msg.sender, address(this), _amount);\n        stakingBalance[msg.sender] = stakingBalance[msg.sender] + _amount;\n        if(!hasStaked[msg.sender]){\n            stakers.push(msg.sender);\n        }\n        isStaking[msg.sender] = true;\n        hasStaked[msg.sender] = true;\n        \n    }\n\n    function unstakeToken() public {\n        uint balance = stakingBalance[msg.sender];\n        require(balance > 0, \"Balance is empty\");\n        tether_token.transfer(msg.sender, balance);\n        stakingBalance[msg.sender] = 0;\n        isStaking[msg.sender] = false;\n    }\n\n    function issueReward() public {\n        require(msg.sender == owner, \"Caller of this function must be the owner\");\n        // issue tokens to all stakers\n        for (uint256 i = 0; i < stakers.length; i++) {\n            address recipient = stakers[i];\n            uint balance = stakingBalance[recipient];\n            if ( balance > 0 ){\n                dummy_token.transfer(recipient, balance);\n            }\n        }\n    }\n}",
  "sourcePath": "/Users/n_tas/Code/Projects/Web3/staking-dapp-dummy-tokens/src/contracts/Staking.sol",
  "compiler": {
    "name": "solc",
    "version": "0.8.19+commit.7dd6d404.Emscripten.clang"
  },
  "schemaVersion": "3.4.16",
  "updatedAt": "2023-12-17T06:52:49.533Z",
  "networkType": "ethereum",
  "devdoc": {
    "kind": "dev",
    "methods": {},
    "version": 1
  },
  "userdoc": {
    "kind": "user",
    "methods": {},
    "version": 1
  }
}