{
  "contractName": "Wazllet",
  "abi": [
    {
      "inputs": [],
      "stateMutability": "nonpayable",
      "type": "constructor"
    },
    {
      "anonymous": false,
      "inputs": [
        {
          "indexed": true,
          "internalType": "address",
          "name": "_from",
          "type": "address"
        },
        {
          "indexed": false,
          "internalType": "uint256",
          "name": "_value",
          "type": "uint256"
        }
      ],
      "name": "Deposit",
      "type": "event"
    },
    {
      "anonymous": false,
      "inputs": [
        {
          "indexed": true,
          "internalType": "address",
          "name": "_from",
          "type": "address"
        },
        {
          "indexed": true,
          "internalType": "address",
          "name": "_to",
          "type": "address"
        },
        {
          "indexed": false,
          "internalType": "uint256",
          "name": "_value",
          "type": "uint256"
        }
      ],
      "name": "Transfer",
      "type": "event"
    },
    {
      "anonymous": false,
      "inputs": [
        {
          "indexed": true,
          "internalType": "address",
          "name": "_to",
          "type": "address"
        },
        {
          "indexed": false,
          "internalType": "uint256",
          "name": "_value",
          "type": "uint256"
        }
      ],
      "name": "Withdrawal",
      "type": "event"
    },
    {
      "inputs": [
        {
          "internalType": "address",
          "name": "",
          "type": "address"
        }
      ],
      "name": "balances",
      "outputs": [
        {
          "internalType": "uint256",
          "name": "",
          "type": "uint256"
        }
      ],
      "stateMutability": "view",
      "type": "function"
    },
    {
      "inputs": [],
      "name": "getBalance",
      "outputs": [
        {
          "internalType": "uint256",
          "name": "",
          "type": "uint256"
        }
      ],
      "stateMutability": "view",
      "type": "function"
    },
    {
      "inputs": [],
      "name": "deposit",
      "outputs": [],
      "stateMutability": "payable",
      "type": "function"
    },
    {
      "inputs": [
        {
          "internalType": "uint256",
          "name": "_amount",
          "type": "uint256"
        }
      ],
      "name": "withdraw",
      "outputs": [],
      "stateMutability": "nonpayable",
      "type": "function"
    }
  ],
  "bytecode": "0x608060405234801561000f575f80fd5b50335f806101000a81548173ffffffffffffffffffffffffffffffffffffffff021916908373ffffffffffffffffffffffffffffffffffffffff1602179055506107e88061005c5f395ff3fe60806040526004361061003e575f3560e01c806312065fe01461004257806327e235e31461006c5780632e1a7d4d146100a8578063d0e30db0146100d0575b5f80fd5b34801561004d575f80fd5b506100566100da565b604051610063919061042c565b60405180910390f35b348015610077575f80fd5b50610092600480360381019061008d91906104a3565b61011e565b60405161009f919061042c565b60405180910390f35b3480156100b3575f80fd5b506100ce60048036038101906100c991906104f8565b610133565b005b6100d861032f565b005b5f60025f3373ffffffffffffffffffffffffffffffffffffffff1673ffffffffffffffffffffffffffffffffffffffff1681526020019081526020015f2054905090565b6002602052805f5260405f205f915090505481565b5f8054906101000a900473ffffffffffffffffffffffffffffffffffffffff1673ffffffffffffffffffffffffffffffffffffffff163373ffffffffffffffffffffffffffffffffffffffff16146101c0576040517f08c379a00000000000000000000000000000000000000000000000000000000081526004016101b79061057d565b60405180910390fd5b600154811115610205576040517f08c379a00000000000000000000000000000000000000000000000000000000081526004016101fc906105e5565b60405180910390fd5b5f8111610247576040517f08c379a000000000000000000000000000000000000000000000000000000000815260040161023e90610673565b60405180910390fd5b8060025f3373ffffffffffffffffffffffffffffffffffffffff1673ffffffffffffffffffffffffffffffffffffffff1681526020019081526020015f205f82825461029391906106be565b925050819055503373ffffffffffffffffffffffffffffffffffffffff166108fc8290811502906040515f60405180830381858888f193505050501580156102dd573d5f803e3d5ffd5b503373ffffffffffffffffffffffffffffffffffffffff167f7fcf532c15f0a6db0bd6d0e038bea71d30d808c7d98cb3bf7268a95bf5081b6582604051610324919061042c565b60405180910390a250565b5f3411610371576040517f08c379a000000000000000000000000000000000000000000000000000000000815260040161036890610761565b60405180910390fd5b3460025f3373ffffffffffffffffffffffffffffffffffffffff1673ffffffffffffffffffffffffffffffffffffffff1681526020019081526020015f205f8282546103bd919061077f565b925050819055503373ffffffffffffffffffffffffffffffffffffffff167fe1fffcc4923d04b559f4d29a8bfc6cda04eb5b0d3c460751c2402c5c5cc9109c3460405161040a919061042c565b60405180910390a2565b5f819050919050565b61042681610414565b82525050565b5f60208201905061043f5f83018461041d565b92915050565b5f80fd5b5f73ffffffffffffffffffffffffffffffffffffffff82169050919050565b5f61047282610449565b9050919050565b61048281610468565b811461048c575f80fd5b50565b5f8135905061049d81610479565b92915050565b5f602082840312156104b8576104b7610445565b5b5f6104c58482850161048f565b91505092915050565b6104d781610414565b81146104e1575f80fd5b50565b5f813590506104f2816104ce565b92915050565b5f6020828403121561050d5761050c610445565b5b5f61051a848285016104e4565b91505092915050565b5f82825260208201905092915050565b7f4f6e6c79206f776e65722063616e2077697468647261770000000000000000005f82015250565b5f610567601783610523565b915061057282610533565b602082019050919050565b5f6020820190508181035f8301526105948161055b565b9050919050565b7f496e73756666696369656e742062616c616e63650000000000000000000000005f82015250565b5f6105cf601483610523565b91506105da8261059b565b602082019050919050565b5f6020820190508181035f8301526105fc816105c3565b9050919050565b7f5769746864726177616c20616d6f756e74206d757374206265206772656174655f8201527f72207468616e2030000000000000000000000000000000000000000000000000602082015250565b5f61065d602883610523565b915061066882610603565b604082019050919050565b5f6020820190508181035f83015261068a81610651565b9050919050565b7f4e487b71000000000000000000000000000000000000000000000000000000005f52601160045260245ffd5b5f6106c882610414565b91506106d383610414565b92508282039050818111156106eb576106ea610691565b5b92915050565b7f4465706f7369742076616c7565206d75737420626520677265617465722074685f8201527f616e203000000000000000000000000000000000000000000000000000000000602082015250565b5f61074b602483610523565b9150610756826106f1565b604082019050919050565b5f6020820190508181035f8301526107788161073f565b9050919050565b5f61078982610414565b915061079483610414565b92508282019050808211156107ac576107ab610691565b5b9291505056fea2646970667358221220a8a35cfaa1533f2427db91ca940da4339b2e95206d744be9aa2e24292d9f624664736f6c63430008150033",
  "immutableReferences": {},
  "source": "// SPDX-License-Identifier: MIT\npragma solidity 0.8.21;\n\ncontract Wazllet {\n    address owner;\n    uint256 balance;\n    mapping(address => uint256) public balances;\n\n    event Deposit(address indexed _from, uint256 _value);\n    event Withdrawal(address indexed _to, uint256 _value);\n    event Transfer(address indexed _from, address indexed _to, uint256 _value);\n\n    constructor() {\n        owner = msg.sender;\n    }\n\n    modifier onlyOwner() {\n        require(msg.sender == owner, \"Only owner can withdraw\");\n        _;\n    }\n\n    function getBalance() public view returns (uint256) {\n        return balances[msg.sender];\n    }\n\n    function deposit() public payable {\n        require(msg.value > 0, \"Deposit value must be greater than 0\");\n        balances[msg.sender] += msg.value;\n        emit Deposit(msg.sender, msg.value);\n    }\n\n    function withdraw(uint256 _amount) public onlyOwner {\n        require(_amount <= balance, \"Insufficient balance\");\n        require(_amount > 0, \"Withdrawal amount must be greater than 0\");\n        balances[msg.sender] -= _amount;\n        payable(msg.sender).transfer(_amount);\n        emit Withdrawal(msg.sender, _amount);\n    }\n}\n",
  "sourcePath": "/Users/n_tas/Code/Projects/Web3/staking-dapp-dummy-tokens/src/contracts/wallet.sol",
  "compiler": {
    "name": "solc",
    "version": "0.8.21+commit.d9974bed.Emscripten.clang"
  },
  "schemaVersion": "3.4.16",
  "updatedAt": "2023-12-16T09:53:35.452Z",
  "devdoc": {
    "kind": "dev",
    "methods": {},
    "version": 1
  },
  "userdoc": {
    "kind": "user",
    "methods": {},
    "version": 1
  }
}